:020000040800F2
:1000000000500020BD040008150300081B03000871
:1000100021030008270300082D030008000000004A
:100020000000000000000000000000003303000892
:100030003F030008000000004B03000857030008BE
:100040000505000805050008050500080505000868
:100050000505000805050008050500080505000858
:100060000505000805050008050500080505000848
:100070000505000805050008050500080505000838
:100080000505000805050008050500080505000828
:100090000505000805050008050500080505000818
:1000A0000505000805050008050500080505000808
:1000B00005050008050500080505000805050008F8
:1000C00005050008050500080505000805050008E8
:1000D00005050008050500080505000805050008D8
:1000E00005050008050500080505000800000000DA
:1000F0000000000000000000000000000000000000
:0C01000000000000000000005FF808F1A3
:10010C0010B5054C237833B9044B13B10448AFF345
:10011C0000800123237010BD70000020000000003F
:10012C00F420000808B5034B1BB103490348AFF397
:10013C00008008BD0000000074000020F4200008BE
:10014C0080B500AF00F0DAF900F005F800F03EF8E9
:10015C0000F0A0F9FCE780B590B000AF07F11803F0
:10016C0028220021184601F0C1FA3B1D00221A601A
:10017C005A609A60DA601A610223BB610123BB6288
:10018C001023FB6200237B6307F11803184600F071
:10019C00A3FC0346002B01D000F042F80F237B6038
:1001AC000023BB600023FB6000233B6100237B61C9
:1001BC003B1D0021184600F011FF0346002B01D017
:1001CC0000F02EF800BF4037BD4680BD80B500AFB3
:1001DC00114B124A1A60104B4FF4E1325A600E4B1D
:1001EC0000229A600C4B0022DA600B4B00221A6141
:1001FC00094B0C225A61084B00229A61064B0022D3
:10020C00DA61054801F078F80346002B01D000F0C4
:10021C0007F800BF80BD00BF8C00002000380140F3
:10022C0080B400AF72B600BFFEE7000080B483B0AC
:10023C0000AF0E4B9B690D4A43F0010393610B4BCE
:10024C009B6903F001037B607B68084BDB69074A01
:10025C0043F08053D361054BDB6903F080533B6063
:10026C003B6800BF0C37BD4680BC70470010024095
:10027C0080B588B000AF786007F1100300221A60D7
:10028C005A609A60DA607B681B681C4A934231D1D1
:10029C001B4B9B691A4A43F480439361184B9B692F
:1002AC0003F48043FB60FB68154B9B69144A43F0D5
:1002BC0004039361124B9B6903F00403BB60BB689E
:1002CC004FF400733B6102237B610323FB6107F155
:1002DC00100319460B4800F07BFA4FF480633B6126
:1002EC0000237B610023BB6107F11003194605480D
:1002FC0000F06EFA00BF2037BD4680BD00380140CB
:10030C00001002400008014080B400AFFEE780B44A
:10031C0000AFFEE780B400AFFEE780B400AFFEE7AD
:10032C0080B400AFFEE780B400AF00BFBD4680BC18
:10033C00704780B400AF00BFBD4680BC704780B42E
:10034C0000AF00BFBD4680BC704780B500AF00F069
:10035C001BF900BF80BD80B586B000AFF860B960F6
:10036C007A6000237B610AE0AFF300800146BB6832
:10037C005A1CBA60CAB21A707B6901337B617A6904
:10038C007B689A42F0DB7B6818461837BD4680BD07
:10039C0080B483B000AF78604FF0FF3318460C3751
:1003AC00BD4680BC704780B483B000AF78603960C4
:1003BC003B684FF400525A60002318460C37BD4678
:1003CC0080BC704780B483B000AF786001231846BE
:1003DC000C37BD4680BC704780B485B000AFF86068
:1003EC00B9607A60002318461437BD4680BC70474C
:1003FC0080B586B000AF7860144A154BD31A7B6178
:10040C007B693B61134B1B68002B02D1114B124AC9
:10041C001A60104B1A687B6813443A699A4207D2E7
:10042C0001F03AF903460C221A604FF0FF3309E051
:10043C00084B1B68FB60074B1A687B681344054A22
:10044C001360FB6818461837BD4680BD005000206D
:10045C0000040000D4000020F000002080B400AFA5
:10046C0000BFBD4680BC704780B584B000AFF8605B
:10047C00B9607A607B689AB24FF0FF33B968044870
:10048C0000F08AFF7B6818461037BD4680BD00BF60
:10049C008C00002080B500AF044801F09DF94FF4AA
:1004AC00FA6000F08DF800BF80BD00BF0C21000881
:1004BC00FFF7D4FF0B480C490C4A002302E0D45838
:1004CC00C4500433C4188C42F9D3094A094C002394
:1004DC0001E013600432A242FBD301F0E3F8FFF712
:1004EC002FFE70470000002070000020BC21000887
:1004FC0070000020EC000020FEE7000080B500AF8B
:10050C00084B1B68074A43F010031360032000F0EC
:10051C002BF90F2000F008F8FFF788FE002318468F
:10052C0080BD00BF0020024080B582B000AF786073
:10053C00124B1A68124B1B7819464FF47A73B3FBA3
:10054C00F1F3B2FBF3F3184600F035F90346002B38
:10055C0001D001230EE07B680F2B0AD800227968AA
:10056C004FF0FF3000F00BF9064A7B681360002354
:10057C0000E0012318460837BD4680BD000000206E
:10058C00080000200400002080B400AF054B1B784D
:10059C001A46054B1B681344034A136000BFBD4643
:1005AC0080BC704708000020D800002080B400AF49
:1005BC00024B1B681846BD4680BC7047D800002013
:1005CC0080B584B000AF7860FFF7F0FFB8607B684F
:1005DC00FB60FB68B3F1FF3F05D00A4B1B781A4652
:1005EC00FB681344FB6000BFFFF7E0FF0246BB68EB
:1005FC00D31AFA689A42F7D800BF00BF1037BD462D
:10060C0080BD00BF0800002080B485B000AF7860CA
:10061C007B6803F00703FB600C4BDB68BB60BA68BC
:10062C004FF6FF031340BB60FB681A02BB68134311
:10063C0043F0BF6343F40033BB60044ABB68D36030
:10064C0000BF1437BD4680BC704700BF00ED00E012
:10065C0080B400AF044BDB681B0A03F00703184699
:10066C00BD4680BC704700BF00ED00E080B483B095
:10067C0000AF03463960FB7197F90730002B0ADB9A
:10068C003B68DAB20C4997F907301201D2B20B442D
:10069C0083F800230AE03B68DAB20849FB7903F0DF
:1006AC000F03043B1201D2B20B441A7600BF0C3775
:1006BC00BD4680BC704700BF00E100E000ED00E0EB
:1006CC0080B489B000AFF860B9607A60FB6803F061
:1006DC000703FB61FB69C3F10703042B28BF042349
:1006EC00BB61FB690433062B02D9FB69033B00E0B9
:1006FC0000237B614FF0FF32BB6902FA03F3DA434C
:10070C00BB681A407B699A404FF0FF317B6901FA54
:10071C0003F3D9437B680B40134318462437BD467B
:10072C0080BC704780B582B000AF78607B68013BBD
:10073C00B3F1807F01D301230FE00A4A7B68013BB0
:10074C0053600F214FF0FF30FFF790FF054B002255
:10075C009A60044B07221A60002318460837BD46DE
:10076C0080BD00BF10E000E080B582B000AF7860C3
:10077C007868FFF749FF00BF0837BD4680BD80B5DC
:10078C0086B000AF0346B9607A60FB7300237B61CF
:10079C00FFF75EFF78617A68B9687869FFF790FFB8
:1007AC00024697F90F3011461846FFF75FFF00BF5E
:1007BC001837BD4680BD80B582B000AF78607868D0
:1007CC00FFF7B0FF034618460837BD4680BD000052
:1007DC0080B48BB000AF7860396000237B6200235B
:1007EC003B6269E101227B6A02FA03F3FB613B681D
:1007FC001B68FA691340BB61BA69FB699A4240F005
:10080C0058813B685B689A4A93425ED0984A9342FF
:10081C0075D8984A934258D0964A93426FD8964AC4
:10082C00934252D0944A934269D8944A93424CD002
:10083C00924A934263D8924A934246D0904A93424A
:10084C005DD8122B2AD8122B59D801A252F823F0BA
:10085C00D7080008B1080008C308000805090008FB
:10086C000B0900080B0900080B0900080B0900080C
:10087C000B0900080B0900080B0900080B090008FC
:10088C000B0900080B0900080B0900080B090008EC
:10089C000B090008B9080008CD080008794A9342F2
:1008AC0013D02CE03B68DB683B6229E03B68DB68DB
:1008BC0004333B6224E03B68DB6808333B621FE097
:1008CC003B68DB680C333B621AE03B689B68002B8F
:1008DC0002D104233B6213E03B689B68012B05D1DA
:1008EC0008233B627B68FA691A6109E008233B62C2
:1008FC007B68FA695A6103E000233B6200E000BFA9
:10090C00BB69FF2B01D87B6801E07B6804337B61FA
:10091C00BB69FF2B02D87B6A9B0002E07B6A083B19
:10092C009B003B617B691A680F213B6901FA03F359
:10093C00DB431A40396A3B6901FA03F31A437B69BA
:10094C001A603B685B6803F08053002B00F0B180A9
:10095C004D4B9B694C4A43F0010393614A4B9B6995
:10096C0003F00103BB60BB68484A7B6A9B080233F7
:10097C0052F82330FB607B6A03F003039B000F22C9
:10098C0002FA03F3DB43FA681340FB607B68404ACE
:10099C00934213D07B683F4A93420DD07B683E4A0A
:1009AC00934207D07B683D4A934201D1032306E072
:1009BC00042304E0022302E0012300E000237A6A0E
:1009CC0002F0030292009340FA681343FB602F4934
:1009DC007B6A9B080233FA6841F823203B685B680A
:1009EC0003F48013002B06D02D4B9A682C49BB695D
:1009FC0013438B6006E02A4B9A68BB69DB4328499A
:100A0C0013408B603B685B6803F40013002B06D02B
:100A1C00234BDA682249BB691343CB6006E0204BB9
:100A2C00DA68BB69DB431E491340CB603B685B68EB
:100A3C0003F40033002B06D0194B5A681849BB69D4
:100A4C0013434B6006E0164B5A68BB69DB431449F1
:100A5C0013404B603B685B6803F48033002B21D060
:100A6C000F4B1A680E49BB6913430B6021E000BFA2
:100A7C000000321000003110000022100000211084
:100A8C000000121000001110001002400000014084
:100A9C0000080140000C014000100140001401400E
:100AAC00000401400B4B1A68BB69DB430949134036
:100ABC000B607B6A01337B623B681A687B6A22FAA3
:100ACC0003F3002B7FF48EAE00BF00BF2C37BD4666
:100ADC0080BC70470004014080B586B000AF7860E0
:100AEC007B68002B01D1012372E27B681B6803F049
:100AFC000103002B00F08780924B5B6803F00C0322
:100B0C00042B0CD08F4B5B6803F00C03082B12D119
:100B1C008C4B5B6803F48033B3F5803F0BD1894B6E
:100B2C001B6803F40033002B6CD07B685B68002BD4
:100B3C0068D101234CE27B685B68B3F5803F06D13A
:100B4C00804B1B687F4A43F4803313602EE07B6834
:100B5C005B68002B0CD17B4B1B687A4A23F48033E7
:100B6C001360784B1B68774A23F4802313601DE0D5
:100B7C007B685B68B3F5A02F0CD1724B1B68714A74
:100B8C0043F4802313606F4B1B686E4A43F480332D
:100B9C0013600BE06B4B1B686A4A23F480331360C1
:100BAC00684B1B68674A23F4802313607B685B687F
:100BBC00002B13D0FFF7FAFC386108E0FFF7F6FCC6
:100BCC0002463B69D31A642B01D9032300E25D4B27
:100BDC001B6803F40033002BF0D014E0FFF7E6FCA5
:100BEC00386108E0FFF7E2FC02463B69D31A642B3C
:100BFC0001D90323ECE1534B1B6803F40033002BA6
:100C0C00F0D100E000BF7B681B6803F00203002BEF
:100C1C0063D04C4B5B6803F00C03002B0BD0494B9F
:100C2C005B6803F00C03082B1CD1464B5B6803F488
:100C3C008033002B16D1434B1B6803F00203002BAF
:100C4C0005D07B681B69012B01D00123C0E13D4B12
:100C5C001B6823F0F8027B685B69DB00394913439E
:100C6C000B603AE07B681B69002B20D0364B0122CD
:100C7C001A60FFF79BFC386108E0FFF797FC02460F
:100C8C003B69D31A022B01D90323A1E12D4B1B681D
:100C9C0003F00203002BF0D02A4B1B6823F0F80260
:100CAC007B685B69DB00274913430B6015E0264B1F
:100CBC0000221A60FFF77AFC386108E0FFF776FC37
:100CCC0002463B69D31A022B01D9032380E11D4B49
:100CDC001B6803F00203002BF0D17B681B6803F048
:100CEC000803002B3AD07B689B69002B19D0174B5B
:100CFC0001221A60FFF75AFC386108E0FFF756FC36
:100D0C0002463B69D31A022B01D9032360E10D4B38
:100D1C005B6A03F00203002BF0D0012000F0CEFA46
:100D2C001CE00A4B00221A60FFF740FC38610FE010
:100D3C00FFF73CFC02463B69D31A022B08D903236C
:100D4C0046E100BF001002400000424280044242D3
:100D5C00924B5B6A03F00203002BE9D17B681B68A2
:100D6C0003F00403002B00F0A6800023FB758B4BD3
:100D7C00DB6903F08053002B0DD1884BDB69874A6C
:100D8C0043F08053D361854BDB6903F08053BB6028
:100D9C00BB680123FB75824B1B6803F48073002B2B
:100DAC0018D17F4B1B687E4A43F480731360FFF7A6
:100DBC00FDFB386108E0FFF7F9FB02463B69D31AEB
:100DCC00642B01D9032303E1754B1B6803F4807377
:100DDC00002BF0D07B68DB68012B06D16F4B1B6AB4
:100DEC006E4A43F0010313622DE07B68DB68002B35
:100DFC000CD16A4B1B6A694A23F001031362674BDF
:100E0C001B6A664A23F0040313621CE07B68DB68F0
:100E1C00052B0CD1614B1B6A604A43F0040313622F
:100E2C005E4B1B6A5D4A43F0010313620BE05B4BA4
:100E3C001B6A5A4A23F001031362584B1B6A574A28
:100E4C0023F0040313627B68DB68002B15D0FFF7DB
:100E5C00ADFB38610AE0FFF7A9FB02463B69D31AE8
:100E6C0041F28832934201D90323B1E04B4B1B6A08
:100E7C0003F00203002BEED014E0FFF797FB386170
:100E8C000AE0FFF793FB02463B69D31A41F2883222
:100E9C00934201D903239BE0404B1B6A03F00203EE
:100EAC00002BEED1FB7D012B05D13C4BDB693B4A82
:100EBC0023F08053D3617B68DB69002B00F08780C3
:100ECC00364B5B6803F00C03082B61D07B68DB6945
:100EDC00022B46D1334B00221A60FFF767FB3861B7
:100EEC0008E0FFF763FB02463B69D31A022B01D9DA
:100EFC0003236DE0294B1B6803F00073002BF0D12A
:100F0C007B681B6AB3F5803F08D1244B5B6823F4E4
:100F1C0000327B689B68214913434B601F4B5B6815
:100F2C0023F474127B68196A7B685B6A0B431B4958
:100F3C0013434B601B4B01221A60FFF737FB3861E0
:100F4C0008E0FFF733FB02463B69D31A022B01D9A9
:100F5C0003233DE0114B1B6803F00073002BF0D012
:100F6C0035E0104B00221A60FFF720FB386108E0D7
:100F7C00FFF71CFB02463B69D31A022B01D9032352
:100F8C0026E0064B1B6803F00073002BF0D11EE02B
:100F9C007B68DB69012B07D1012319E000100240AB
:100FAC0000700040600042420B4B5B68FB60FB68CA
:100FBC0003F480327B681B6A9A4206D1FB6803F407
:100FCC0070127B685B6A9A4201D0012300E0002317
:100FDC0018461837BD4680BD0010024080B584B05D
:100FEC0000AF786039607B68002B01D10123D0E021
:100FFC006A4B1B6803F007033A689A4210D9674B97
:10100C001B6823F0070265493B6813430B60634B75
:10101C001B6803F007033A689A4201D00123B8E039
:10102C007B681B6803F00203002B20D07B681B68D5
:10103C0003F00403002B05D0594B5B68584A43F46A
:10104C00E06353607B681B6803F00803002B05D03A
:10105C00534B5B68524A43F460535360504B5B688C
:10106C0023F0F0027B689B684D4913434B607B680F
:10107C001B6803F00103002B40D07B685B68012BDD
:10108C0007D1474B1B6803F40033002B15D1012308
:10109C007FE07B685B68022B07D1414B1B6803F038
:1010AC000073002B09D1012373E03D4B1B6803F047
:1010BC000203002B01D101236BE0394B5B6823F059
:1010CC0003027B685B68364913434B60FFF76EFA8B
:1010DC00F8600AE0FFF76AFA0246FB68D31A41F29D
:1010EC008832934201D9032353E02D4B5B6803F004
:1010FC000C027B685B689B009A42EBD1274B1B6808
:10110C0003F007033A689A4210D2244B1B6823F071
:10111C00070222493B6813430B60204B1B6803F00A
:10112C0007033A689A4201D0012332E07B681B68BE
:10113C0003F00403002B08D0194B5B6823F4E06226
:10114C007B68DB68164913434B607B681B6803F0B4
:10115C000803002B09D0124B5B6823F460527B68A8
:10116C001B69DB000E4913434B6000F021F802466B
:10117C000B4B5B681B0903F00F030A49CB5C22FA8B
:10118C0003F3094A1360094B1B681846FFF7CCF9A7
:10119C00002318461037BD4680BD00BF002002401A
:1011AC000010024024210008000000200400002050
:1011BC0080B487B000AF0023FB600023BB6000232A
:1011CC007B6100237B6000233B611E4B5B68FB60F3
:1011DC00FB6803F00C03042B02D0082B03D027E090
:1011EC00194B3B6127E0FB689B0C03F00F03174A7C
:1011FC00D35C7B60FB6803F48033002B10D0114B65
:10120C005B685B0C03F00103114AD35CBB607B6829
:10121C000D4A03FB02F2BB68B2FBF3F37B6104E003
:10122C007B680C4A02FB03F37B617B693B6102E048
:10123C00054B3B6100BF3B6918461C37BD4680BC63
:10124C00704700BF0010024000127A003C210008D9
:10125C004C21000800093D0080B400AF024B1B6814
:10126C001846BD4680BC70470000002080B500AF1A
:10127C00FFF7F2FF0246054B5B681B0A03F00703FE
:10128C000349CB5C22FA03F3184680BD00100240E0
:10129C003421000880B500AFFFF7DEFF0246054B96
:1012AC005B68DB0A03F007030349CB5C22FA03F308
:1012BC00184680BD001002403421000880B485B06F
:1012CC0000AF78600A4B1B680A4AA2FB03235B0A37
:1012DC007A6802FB03F3FB6000BFFB685A1EFA60DE
:1012EC00002BF9D100BF00BF1437BD4680BC70473E
:1012FC0000000020D34D621080B582B000AF786042
:10130C007B68002B01D1012342E07B6893F84130CC
:10131C00DBB2002B06D17B68002283F84020786872
:10132C00FEF7A6FF7B68242283F841207B681B68AC
:10133C00DA687B681B6822F40052DA60786800F087
:10134C001DF97B681B681A697B681B6822F4904244
:10135C001A617B681B685A697B681B6822F02A0239
:10136C005A617B681B68DA687B681B6842F4005220
:10137C00DA607B6800225A647B68202283F8412063
:10138C007B68202283F842207B6800225A6300236A
:10139C0018460837BD4680BD80B58AB002AFF860EC
:1013AC00B9603B601346FB8000237B61FB6893F8BC
:1013BC004130DBB2202B6DD1BB68002B02D0FB88F7
:1013CC00002B01D1012366E0FB6800225A64FB6804
:1013DC00212283F84120FFF7E9F87861FB68FA884D
:1013EC009A84FB68FA88DA84FB689B68B3F5805FA3
:1013FC0008D1FB681B69002B04D10023FB61BB687F
:10140C00BB6103E0BB68FB610023BB612AE03B6866
:10141C0000937B6900228021F86800F040F80346B5
:10142C00002B01D0032336E0FB69002B0BD1BB69E9
:10143C001B881A46FB681B68C2F308025A60BB691A
:10144C000233BB6107E0FB691A78FB681B685A60C2
:10145C00FB690133FB61FB68DB8C9BB2013B9AB2ED
:10146C00FB68DA84FB68DB8C9BB2002BCFD13B682A
:10147C0000937B6900224021F86800F010F80346C5
:10148C00002B01D0032306E0FB68202283F84120C7
:10149C00002300E0022318462037BD4680BD80B5EE
:1014AC0090B000AFF860B9603B601346FB7150E040
:1014BC00BB6CB3F1FF3F4CD0BB6C002B07D0FFF7DC
:1014CC0075F802463B68D31ABA6C9A4241D2FB6853
:1014DC001B680C33BB62BB6A53E8003F7B627B6AC0
:1014EC0023F4D073FB63FB681B680C33FA6B7A63D1
:1014FC003B63396B7A6B41E80023FB62FB6A002B80
:10150C00E5D1FB681B6814337B617B6953E8003FB2
:10151C003B613B6923F00103BB63FB681B6814331D
:10152C00BA6B3A62FB61F9693A6A41E80023BB6124
:10153C00BB69002BE5D1FB68202283F84120FB68B6
:10154C00202283F84220FB68002283F840200323EA
:10155C000FE0FB681B681A68BB681340BA689A42B4
:10156C000CBF01230023DBB21A46FB799A429FD0B1
:10157C00002318464037BD4680BD000080B584B0BE
:10158C0000AF78607B681B681B6923F440517B6853
:10159C00DA687B681B680A431A617B689A687B6807
:1015AC001B691A437B685B691343BB607B681B68D0
:1015BC00DB6823F4B05323F00C037A681268B96823
:1015CC000B43D3607B681B685B6923F440717B68B9
:1015DC009A697B681B680A435A617B681B682C4AB2
:1015EC00934203D1FFF756FEF86002E0FFF73EFE90
:1015FC00F860FA6813469B0013449A001A447B68FF
:10160C005B689B00B2FBF3F3224AA2FB03235B094A
:10161C001901FA6813469B0013449A001A447B681C
:10162C005B689B00B2FBF3F21A4BA3FB02035B0952
:10163C00642000FB03F3D31A1B013233154AA2FBBF
:10164C0003235B0903F0F0031944FA6813469B006B
:10165C0013449A001A447B685B689B00B2FBF3F25C
:10166C000C4BA3FB02035B09642000FB03F3D31AAE
:10167C001B013233074AA2FB03235B0903F00F0261
:10168C007B681B680A449A6000BF1037BD4680BD5A
:10169C00003801401F85EB51014B1868704700BFA3
:1016AC000C00002070B500260C4D0D4C641BA410D2
:1016BC00A64209D100F018FD00260A4D0A4C641B05
:1016CC00A410A64205D170BD55F8043B98470136CD
:1016DC00EEE755F8043B98470136F2E7B4210008D1
:1016EC00B4210008B4210008B821000803460244C4
:1016FC00934200D1704703F8011BF9E770B50E4611
:10170C00054618B183690BB900F044FAAB69AC68B3
:10171C0013B9284600F03EFA2C4B9C4220D16C6841
:10172C00636EDB0705D4A389980502D4A06D00F085
:10173C00CFFAA38919071DD52369DBB1013EA36834
:10174C0016F8011F013BA36039BB002B38DA224687
:10175C000A21284600F048F8013011D00A2511E082
:10176C001B4B9C4201D1AC68DAE71A4B9C4208BF78
:10177C00EC68D5E72146284600F088F80028DDD033
:10178C004FF0FF35636EDA0705D4A3899B0502D4AD
:10179C00A06D00F09EFA284670BD002B04DAA269F9
:1017AC009A4206DC0A2904D023685A1C226019705C
:1017BC00C5E72246284600F017F80130BFD1DFE715
:1017CC000A2523685A1C22601D70DBE7742100086F
:1017DC009421000854210008024B01461868FFF7B9
:1017EC008DBF00BF0C000020F8B50E461446054610
:1017FC0018B183690BB900F0CDF9214B9C422BD168
:10180C006C68A369A360A3891A072FD523696BB3EE
:10181C0023692068F6B2C01A63693746834204DC38
:10182C002146284600F022F930BBA3680130013B69
:10183C00A36023685A1C22601E706369834204D023
:10184C00A389DB0706D50A2E04D12146284600F0D1
:10185C000DF988B93846F8BD0A4B9C4201D1AC68E9
:10186C00CFE7094B9C4208BFEC68CAE721462846E3
:10187C0000F00CF80028CBD04FF0FF37EAE700BFA0
:10188C00742100089421000854210008324B70B5D3
:10189C001D6806460C4625B1AB6913B9284600F005
:1018AC0079F92E4B9C420FD16C68A389B4F90C20AA
:1018BC0019072CD4DD0611D40923336042F0400300
:1018CC004FF0FF30A3813EE0254B9C4201D1AC6828
:1018DC00EBE7244B9C4208BFEC68E6E7580712D5AF
:1018EC00616B41B104F14403994202D0304600F0DF
:1018FC0057FA00236363A38923F02403A3810023F5
:10190C00636023692360A38943F00803A3812369DF
:10191C004BB9A38903F42073B3F5007F03D02146A0
:10192C00304600F0FDF9A089B4F90C2010F0010349
:10193C000AD00023A36063695B42A361236943B9A6
:10194C0010F08000BAD170BD810758BF6369A360E5
:10195C00F4E70020F7E700BF0C000020742100081A
:10196C0094210008542100088A89F8B5054610070F
:10197C000C4657D44B68002B04DC0B6C002B01DCA1
:10198C000020F8BDE66A002EFAD0002312F4805233
:10199C002F682B6032D0606DA3895A0705D5636818
:1019AC00C01A636B0BB1236CC01A00230246E66AA3
:1019BC002846216AB047431CA38906D129681D29F2
:1019CC002CD8294ACA40D60728D500226260226941
:1019DC00D904226004D5421C01D12B6803B960657F
:1019EC00616B2F600029CBD004F14403994202D0E3
:1019FC00284600F0D5F900206063C2E7216A012374
:101A0C002846B047411CC7D12B68002BC4D01D2BD6
:101A1C0001D0162B01D12F60B2E7A38943F040030C
:101A2C00A381AEE70F69002FAAD0930718BF00233C
:101A3C000E6808BF4B69F61B0F608B60002E9FDD94
:101A4C0033463A462846216AD4F828C0E047002895
:101A5C0006DCA3894FF0FF3043F04003A38190E7ED
:101A6C000744361AEAE700BF0100402038B50B697D
:101A7C0005460C4613B90025284638BD18B18369B4
:101A8C000BB900F087F8144B9C421BD16C68B4F96D
:101A9C000C30002BEFD0626ED00704D4990502D421
:101AAC00A06D00F015F928462146FFF75DFF636E27
:101ABC000546DA07E0D4A3899B05DDD4A06D00F0C0
:101ACC0008F9D9E7054B9C4201D1AC68DFE7044B20
:101ADC009C4208BFEC68DAE77421000894210008E6
:101AEC0054210008002310B50446C0E90033C0E9B6
:101AFC000433836081814366C28183611946082265
:101B0C005C30FFF7F3FD054B24626362044BA36268
:101B1C00044BE362044B236310BD00BF851F000818
:101B2C00A71F0008DF1F000803200008014900F070
:101B3C00AFB800BF791A0008682270B54D1E554326
:101B4C000E4605F1740100F093F9044640B10021F2
:101B5C00C0E900160C30A06005F16802FFF7C6FD65
:101B6C00204670BD014800F0B3B800BFDD00002076
:101B7C00014800F0AEB800BFDD000020014800F0C5
:101B8C00A7B800BFDE000020014800F0A2B800BFDB
:101B9C00DE00002010B50446FFF7F0FFA3691BB16F
:101BAC00BDE81040FFF7F0BFC4E912332365134BB7
:101BBC00134A1B68A262A34208BF0123204608BF38
:101BCC00A36100F01FF86060204600F01BF8A060D5
:101BDC00204600F017F800220421E0606068FFF74F
:101BEC0081FF01220921A068FFF77CFF022212214C
:101BFC00E068FFF777FF0123A361D1E750210008CC
:101C0C00391B0008F8B50746FFF7ACFF1E4B1E68E2
:101C1C00B36913B93046FFF7BDFF4836D6E9013436
:101C2C00013B03D533680BB33668F7E7B4F90C50B6
:101C3C00D5B9164B04F15800E360656600F047F81F
:101C4C00FFF796FF08222946C4E90155C4E904555B
:101C5C002560A56104F15C00FFF748FDC4E90D5552
:101C6C00C4E912552046F8BD6834D9E7042138463A
:101C7C00FFF762FF044630600028D5D1FFF778FFEC
:101C8C000C233B60EEE700BF502100080100FFFF72
:101C9C002DE9F84306468846002700F14804D4E9AC
:101CAC000195B9F1010905D52468002CF7D1384606
:101CBC00BDE8F883AB89012B07D9B5F90E30013398
:101CCC0003D029463046C04707436835E9E77047DB
:101CDC007047704770B50E46B1F90E1014460029C6
:101CEC001D4696B008DA0022B6F90C302A601A06A6
:101CFC0010D44FF480630EE06A4600F0A3F900287C
:101D0C00F1DB019A02F47042A2F500535A425A4197
:101D1C002A60EEE740230020236016B070BD00005F
:101D2C008B8973B59D0706460C4607D504F147030E
:101D3C00236023610123636102B070BD6A4601AB6D
:101D4C00FFF7C8FF00990546304600F091F848B9F6
:101D5C00B4F90C309A05EFD423F0030343F00203DB
:101D6C00A381E3E70D4BB362A389206043F08003AA
:101D7C00A381009B20616361019B5BB13046B4F988
:101D8C000E1000F071F928B1A38923F0030343F07E
:101D9C000103A381A0890543A581CDE7391B000868
:101DAC0038B50546002940D051F8043C0C1F002BD7
:101DBC00B8BFE41800F07AF91C4A136833B96360B1
:101DCC0014602846BDE8384000F076B9A34208D923
:101DDC00206821188B4201BF19685B6809182160C3
:101DEC00EDE71A465B680BB1A342FAD9116850189B
:101DFC00A0420BD120680144501883421160E0D1FD
:101E0C0018685B68014411605360DAE702D90C234F
:101E1C002B60D6E7206821188B4201BF19685B68DC
:101E2C000918216063605460CBE738BDE0000020E6
:101E3C0070B50E4E0C463168054611B900F08CF8A1
:101E4C0030602146284600F087F8431C0AD0C41C99
:101E5C0024F00304A04207D0211A284600F07CF895
:101E6C00013001D14FF0FF34204670BDE40000205A
:101E7C002DE9F041CD1C25F0030508350C2D38BF9C
:101E8C000C25002D074601DBA94205D90C230026A1
:101E9C003B603046BDE8F0812E4E00F007F9336808
:101EAC001C4634BB29463846FFF7C2FF431C044688
:101EBC004DD134682646002E40D123683146384631
:101ECC0004EB030800F048F880453AD1216803354B
:101EDC006D1A25F0030508350C2D38BF0C25384636
:101EEC002946FFF7A5FF01302BD023682B44236034
:101EFC000EE02268521B1ED40B2A16D96119A3427C
:101F0C00256018BF5960636808BF316062514B602F
:101F1C00384604F10B0600F0CFF826F00706231D17
:101F2C00F21AB6D09B1BA350B3E76268A3420CBF56
:101F3C0032605A60ECE723466468B2E73446766850
:101F4C00B9E70C2338463B6000F0B6F8A1E72560F2
:101F5C00DEE700BFE000002038B50023054D044645
:101F6C0008462B60FEF744FA431C02D12B6803B1E0
:101F7C00236038BDE800002010B50C46B1F90E10F6
:101F8C0000F0A0F80028ABBF636DA3891B1823F4E5
:101F9C008053ACBF6365A38110BD2DE9F0411F4692
:101FAC008B890546DB050C46164605D50223002217
:101FBC00B1F90E1000F068F8A389324623F480536F
:101FCC00A38128463B46B4F90E10BDE8F04100F061
:101FDC0017B810B50C46B1F90E1000F055F8431CAB
:101FEC00A38915BF606523F4805343F48053A38108
:101FFC0018BFA38110BDB1F90E1000F013B800008A
:10200C0038B50446084611460022054D2A601A468A
:10201C00FEF72AFA431C02D12B6803B1236038BDAA
:10202C00E800002038B50023054D044608462B6017
:10203C00FEF7AEF9431C02D12B6803B1236038BD07
:10204C00E800002038B50023064D0446084611462A
:10205C002B60FEF7A8F9431C02D12B6803B1236057
:10206C0038BD00BFE800002038B50023054D0446FC
:10207C0008462B60FEF7A6F9431C02D12B6803B16E
:10208C00236038BDE800002038B5044608461146E8
:10209C000022054D2A601A46FEF79EF9431C02D118
:1020AC002B6803B1236038BDE80000200148FFF71E
:1020BC000FBE00BFDC0000200148FFF70ABE00BFC6
:1020CC00DC00002038B50446084611460022054DB8
:1020DC002A601A46FEF73FF9431C02D12B6803B164
:1020EC00236038BDE8000020F8B500BFF8BC08BC80
:1020FC009E467047F8B500BFF8BC08BC9E467047BA
:10210C0048656C6C6F206974732053544D333246A0
:10211C00313033523854360000000000000000000B
:10212C000102030406070809000000000102030471
:10213C0002030405060708090A0B0C0D0E0F1010FC
:10214C000102000010000020000000000000000050
:10215C000000000000000000000000000000000073
:10216C000000000000000000000000000000000063
:10217C000000000000000000000000000000000053
:10218C000000000000000000000000000000000043
:10219C000000000000000000000000000000000033
:0821AC0000000000000000002B
:0421B40031010008ED
:0421B8000D0100080D
:1021BC000024F400100000000100000010000020BA
:1021CC00000000007421000894210008542100082C
:1021DC0000000000000000000000000000000000F3
:1021EC0000000000000000000000000000000000E3
:1021FC0000000000000000000000000000000000D3
:10220C0000000000000000000000000000000000C2
:10221C0000000000000000000000000000000000B2
:04000005080004BD2E
:00000001FF
